:1000000001C100001EC100001CC100001AC1000097
:1000100018C1000016C1000014C1000012C1000088
:1000200010C100000EC100000CC100000AC1000098
:1000300008C1000006C1000004C1000002C10000A8
:1000400000C1000067C20000FCC00000FAC0000050
:10005000F8C00000F6C00000F4C0000011C20000AB
:10006000F0C00000EEC00000ECC00000EAC00000DC
:10007000E8C00000E6C00000E4C00000E2C00000EC
:10008000E0C00000DEC00000DCC00000DAC00000FC
:10009000D8C00000D6C00000D4C00000D2C000000C
:1000A000D0C00000CEC00000CCC00000CAC000001C
:1000B000C8C00000C6C00000C4C00000C2C000002C
:1000C000C0C00000BEC00000BCC00000BAC000003C
:1000D000B8C00000B6C00000B4C00000B2C000004C
:1000E000B0C0000000002100240027002A002D00DD
:1000F0003000330001010000040107010A01000083
:100100002200250028002B002E00310034000201BF
:100110000000050108010B0100002000230026005B
:1001200029002C002F00320000010000030106010D
:10013000090105050505070508080808020202026D
:100140000A0A080804040404010101010101010173
:100150000303030303030303040707070C0C0C0C3E
:100160000C0C0C0C02020202060606060606060627
:100170000B0B0B0B0B0B0B0B0102102020080810B4
:100180002040102040800201020108040201010207
:1001900004081020408080402010080402018004E0
:1001A000020180402010080402010804020101023B
:1001B0000408102040800102040810204080000044
:1001C0000A0B02090C0D0E080703040100000000D1
:1001D000000000000000000000000000000000001F
:1001E00000000000000000000000121110000000DC
:1001F00000000000000000000000000000000000FF
:100200000000000011241FBECFEFD1E2DEBFCDBF42
:1002100000E00CBF12E0A0E0B2E0E8E9FFE000E09F
:100220000BBF02C007900D92AA30B107D9F722E0A8
:10023000AAE0B2E001C01D92A033B207E1F773D289
:10024000A9C6DECE8150823108F059C0E82FF0E017
:100250008827E35DFE4F8F4FB9C34D0151013F0128
:10026000450149017F0154015A015E0164016801A1
:100270006C01720176017F017A0180018401809115
:1002800080008F77809380000895809180008F7D1B
:10029000F9CF80918000877FF5CF84B58F7784BDBB
:1002A000089584B58F7DFBCF8091B0008F778093C8
:1002B000B00008958091B0008F7DF9CF80919000BB
:1002C0008F77809390000895809190008F7DF9CF73
:1002D00080919000877FF5CF8091A0008F778093E9
:1002E000A00008958091A0008F7DF9CF8091A0009B
:1002F000877FF5CF809120018F778093200108952B
:10030000809120018F7DF9CF80912001877FF5CFEB
:10031000CF93DF93282F30E0F901E254FE4F849110
:10032000F901E858FE4FD491F901EE5CFE4FC491FB
:10033000CC2399F0811186DFEC2FF0E0EE0FFF1F48
:10034000E85EFE4FA591B491EC91ED2381E090E041
:1003500009F480E0DF91CF91089580E090E0FACF3A
:100360001F93CF93DF93282F30E0F901E254FE4F23
:100370008491F901E858FE4FD491F901EE5CFE4FEB
:10038000C491CC23A1F0162F81115CDFEC2FF0E09B
:10039000EE0FFF1FE250FF4FA591B4918FB7F89475
:1003A000EC91111108C0D095DE23DC938FBFDF9153
:1003B000CF911F910895DE2BF8CFCF93DF9390E07C
:1003C000FC01E858FE4F24918E5C9E4FFC01849105
:1003D0008823D1F090E0880F991FFC01EC51FF4F6A
:1003E000A591B491FC01E250FF4FC591D4916230C8
:1003F00071F49FB7F8943C91822F809583238C935E
:10040000E8812E2B28839FBFDF91CF9108958FB76E
:10041000F894EC912E2B2C938FBFF6CF0F931F9354
:10042000CF93DF9300D0CDB7DEB7182F062F1F92E2
:100430006F9386E092E09F938F93CE0101969F93F6
:100440008F93E0D20F900F900F900F900F900F901E
:100450000A3020F489818A8380E38983E12FF0E0E8
:10046000EE0FFF1FEC5EFD4F898180838A818183BF
:100470000F900F900F90DF91CF911F910F910895E2
:100480001F920F920FB60F9211242F933F938F93C9
:100490009F93AF93BF9380912C0290912D02A091D6
:1004A0002E02B0912F0230912B0223E0230F2D3723
:1004B00058F50196A11DB11D20932B0280932C02AB
:1004C00090932D02A0932E02B0932F0280912702C9
:1004D00090912802A0912902B0912A020196A11DB3
:1004E000B11D8093270290932802A0932902B09314
:1004F0002A02BF91AF919F918F913F912F910F90C1
:100500000FBE0F901F90189526E8230F0296A11D8D
:10051000B11DD2CF1F920F920FB60F9211240BB6BE
:100520000F922F933F934F935F936F937F938F938C
:100530009F93AF93BF93CF93DF93EF93FF93C091BC
:100540000C02D0910D0260E080911302209721F0FF
:10055000FE01E35FFD4F808103DFCC5EDD4F8881CC
:10056000813309F067C089EF88B9C0910C02D0913E
:100570000D02FE01E25FFD4F61E08081F1DECD7F83
:10058000219709F4479880910C0290910D020196F1
:100590008630910509F474C090930D0280930C028B
:1005A0008091250290912602009729F0019790935F
:1005B00026028093250220910A0230910B02C90184
:1005C000019690930B0280930A02243F314009F078
:1005D00096C010920B0210920A0280912202882388
:1005E00041F080911F02882309F44FC0815080930D
:1005F0001F0280911E02882341F080911B028823F4
:1006000009F460C0815080931B02FF91EF91DF914C
:10061000CF91BF91AF919F918F917F916F915F919A
:100620004F913F912F910F900BBE0F900FBE0F90E7
:100630001F901895823311F484EA96CF833311F416
:1006400080EB92CF843311F489E98ECF853311F496
:1006500082E98ACF863311F482E886CF873311F49A
:1006600088EF82CF883311F480E87ECF893311F48C
:1006700080E97ACF803311F480EC76CF86E874CFAE
:1006800010920D0210920C028BCF9BE390931F02ED
:1006900080912002882321F0815080932002A9CFED
:1006A00080912102882331F0815080932102909320
:1006B00020029FCF10921F021092220281E08093AD
:1006C0001A0297CF9BE390931B0280911C02882310
:1006D00021F0815080931C0298CF80911D028823C5
:1006E00031F0815080931D0290931C028ECF1092A6
:1006F0001B0210921E0281E080931A0286CF68ECE2
:1007000070E051D1892B09F080CF80911A028823A3
:1007100009F47BCF8F5F80931A0261E080FD60E077
:100720008DE01EDE72CFCF93DF9300D000D0CDB727
:10073000DEB7789484B5826084BD84B5816084BD61
:1007400085B5826085BD85B5816085BD80916E006F
:10075000816080936E0010928100809181008260A0
:1007600080938100809181008160809381008091DD
:1007700080008160809380008091B10084608093CC
:10078000B1008091B00081608093B00080919100B1
:1007900082608093910080919100816080939100AC
:1007A000809190008160809390008091A100826090
:1007B0008093A1008091A10081608093A10080912D
:1007C000A00081608093A0008091210182608093CD
:1007D000210180912101816080932101809120017C
:1007E00081608093200180917A00846080937A00F8
:1007F00080917A00826080937A0080917A00816093
:1008000080937A0080917A00806880937A001092B9
:10081000C100F894109280008BE08093810082E008
:1008200080936F008CE490E090938900809388001F
:1008300086E0E0E0F2E0DE01119601900D928A95EB
:10084000E1F78FEF87B918B8FE013196AEE0B2E05C
:10085000CE01079621912D938E179F07D9F7789493
:1008600061E08DE0AADD62E085E3A7DD62E084E37C
:10087000A4DD62E083E3A1DD62E082E39EDD8FE13F
:1008800092E090932402809323026624639420E0F4
:10089000E22E20E0F22E30E5C32ED12C5C014BE19C
:1008A000842E42E0942E55E4752E8091250290917D
:1008B0002602892B09F03BC00091230210912402EB
:1008C00085E326DD892B39F4F80182818F5F893138
:1008D00009F44FC0828384E31BDD892B39F4F801CE
:1008E00081818F5F8D3309F446C0818383E310DDFE
:1008F000892B41F40F51124009F03FC0909224021D
:100900008092230282E304DD892B69F4E0912302C3
:10091000F091240283818823A9F1138210921A0294
:1009200060E08DE01DDDD0922602C0922502E091AC
:100930002302F09124026281693130F580E06EDD9E
:10094000E0912302F091240261816D3310F581E082
:1009500065DDE0912302F091240260816D33F0F4B3
:1009600082E05CDDE114F10409F49FCF0E940000F5
:100970009CCF1282B0CF1182B9CFB0922402A09244
:100980002302C0CF6382CACF709214027092150204
:10099000D7CF7092160270921702DBCF70921802B6
:1009A00070921902DFCF97FB072E16F4009406D041
:1009B00077FD08D013D007FC05D03EF490958195C3
:1009C0009F4F0895709561957F4F0895EE0FFF1F1B
:1009D000881F8BBF0790F691E02D1994AA1BBB1BB3
:1009E00051E107C0AA1FBB1FA617B70710F0A61B2F
:1009F000B70B881F991F5A95A9F780959095BC0150
:100A0000CD0108950F931F93CF93DF93CDB7DEB73A
:100A10002E970FB6F894DEBF0FBECDBF0E891F898B
:100A200086E08C831A8309838FEF9FE79E838D83F3
:100A3000AE01465E5F4F688D798DCE01019611D073
:100A40002F813885020F131FF80110822E960FB6E2
:100A5000F894DEBF0FBECDBFDF91CF911F910F91F4
:100A600008952F923F924F925F926F927F928F9252
:100A70009F92AF92BF92CF92DF92EF92FF920F932D
:100A80001F93CF93DF9300D000D000D01F921F920E
:100A9000CDB7DEB77C013B018A01FC0117821682CB
:100AA000838181FFD0C1CE0101965C01F701938162
:100AB000F30193FD859193FF81913F01882309F410
:100AC00049C1853239F493FD859193FF81913F01AE
:100AD000853221F4B70190E0CFD1E8CF912C212CC1
:100AE000312CFFE1F31538F08B3211F190F48032A4
:100AF00009F1833229F137FC3CC020ED280F2A3060
:100B000050F536FE20C08AE0989E200D1124922ECA
:100B100006C08D3291F0803371F7689430F8F3019C
:100B200093FD859193FF81913F018111DACF21C01F
:100B3000689431F8689432F8F2CF689433F8EFCFC4
:100B4000689434F8ECCFEAE02E9E200D1124222E7A
:100B5000689435F8E4CF8E3229F436FCFBC06894F3
:100B600036F8DDCF8C3619F4689437F8D8CF88364C
:100B7000B1F2982F9F7D95549330D8F0833691F140
:100B80008337B1F1833509F05EC02801F2E04F0EE2
:100B9000511CF801C080D180692D70E036FC02C084
:100BA0006FEF7FEFC60152D14C01689437F8820194
:100BB0000AC00C5F1F4FFFE3F98388248394912CB4
:100BC0006501E89437F833FE2AC0522C8114910451
:100BD00059F5552009F46ACFB70180E290E04CD175
:100BE0005A94F7CFF801808189830E5F1F4FE5CFBC
:100BF0002801F2E04F0E511CF801C080D180692D10
:100C000070E036FC02C06FEF7FEFC6012AD14C01C5
:100C10008201D7CFB70180E290E02ED12A94281428
:100C2000190409F0B8F7D1CFF60137FC859137FEEA
:100C300081916F01B70190E01FD151105A94F1E0FA
:100C40008F1A9108C3CF843619F0893609F073C022
:100C5000F80137FE67C060817181828193810C5FEA
:100C60001F4FF32DFF763F2E97FF09C0909580957B
:100C7000709561957F4F8F4F9F4F689437F82AE0AA
:100C800030E0A50129D1C82ECA188C2C432C36FE81
:100C90000CC0E89440F8C91440F434FE05C032FC9E
:100CA00003C0F32DFE7E4F2E892C44FEA6C0FE010C
:100CB000EC0DF11D8081803309F098C0242D297E30
:100CC000422E842D8870582E43FCA5C040FE9FC044
:100CD0009C2C821418F42C0C922C981844FEA1C061
:100CE000B70180E390E0C8D042FE08C088E790E0FA
:100CF00041FE02C088E590E0B701BED0C91408F4F7
:100D00009CC0CA94D12C9FEFC91AD90ACA0CDB1C0B
:100D1000F60182916F01B70190E0AED0AC14BD0432
:100D2000B9F757CF60817181072E000C880B990BA2
:100D30000E5F1F4F96CFD32CE894D4F82AE030E012
:100D40008537E1F1232D297FD22E8F36A9F1F0F4DA
:100D5000883551F1F701868197812B960FB6F8946B
:100D6000DEBF0FBECDBFDF91CF911F910F91FF90DE
:100D7000EF90DF90CF90BF90AF909F908F907F903B
:100D80006F905F904F903F902F900895803749F07B
:100D9000883701F7D4FE02C06894D2F820E130E031
:100DA0000DC06894D4F8F6CF34FE03C0822F86605D
:100DB000D82E20E132E002C028E030E0F801D7FE72
:100DC0000EC060817181828193810C5F1F4FA501EC
:100DD00083D0C82ECA183D2CE89437F856CF6081CE
:100DE000718190E080E00E5F1F4FF1CF42FC02C0A6
:100DF000839467CF8394839464CF842D867809F499
:100E000060CFF6CFB70180E290E036D083948214B1
:100E1000C8F3512C63CF522C5818821408F45ECFBB
:100E2000F8CF842D867809F469CF8BE241FE80E209
:100E300047FC8DE2B70190E060CFB70180E390E01E
:100E40001BD09A945BCF8FEF9FEF87CFFC0105906B
:100E5000615070400110D8F7809590958E0F9F1FBC
:100E60000895FC016150704001900110D8F7809501
:100E700090958E0F9F1F08950F931F93CF93DF932D
:100E8000182F092FEB018B8181FD09C01FEF0FEF98
:100E9000812F902FDF91CF911F910F91089582FFA5
:100EA00014C02E813F818C819D81281739073CF425
:100EB000E881F981CF0101969983888310838E811F
:100EC0009F8101969F838E83E3CFE885F985812FEB
:100ED0001995892BA1F3DACFFA01AA27283051F10D
:100EE000203181F1E8946F936E7F6E5F7F4F8F4F5B
:100EF0009F4FAF4FB1E03ED0B4E03CD0670F781FBA
:100F0000891F9A1FA11D680F791F8A1F911DA11D9E
:100F10006A0F711D811D911DA11D20D009F46894D7
:100F20003F912AE0269F11243019305D3193DEF67F
:100F3000CF010895462F4770405D4193B3E00FD035
:100F4000C9F7F6CF462F4F70405D4A3318F0495D20
:100F500031FD4052419302D0A9F7EACFB4E0A69503
:100F60009795879577956795BA95C9F70097610525
:100F7000710508959B01AC010A2E0694579547957B
:100F800037952795BA95C9F7620F731F841F951F70
:080F9000A01D0895F894FFCFA5
:0A0F980018191A1B1C1D2564000027
:00000001FF
